{"abi":[{"inputs":[{"internalType":"address","name":"_priceFeed","type":"address"}],"stateMutability":"nonpayable","type":"constructor","name":"constructor"},{"anonymous":false,"inputs":[{"indexed":true,"internalType":"address","name":"previousOwner","type":"address"},{"indexed":true,"internalType":"address","name":"newOwner","type":"address"}],"name":"OwnershipTransferred","type":"event"},{"inputs":[],"name":"addDeposit","outputs":[],"stateMutability":"payable","type":"function"},{"inputs":[{"internalType":"uint256","name":"_depositId","type":"uint256"},{"internalType":"address","name":"_depositorAddress","type":"address"}],"name":"addWatcher","outputs":[],"stateMutability":"payable","type":"function"},{"inputs":[{"internalType":"bool","name":"_isFinalAlert","type":"bool"},{"internalType":"uint256","name":"_depositId","type":"uint256"}],"name":"alertWatchers","outputs":[],"stateMutability":"nonpayable","type":"function"},{"inputs":[{"internalType":"uint256","name":"_depositId","type":"uint256"},{"internalType":"address","name":"_depositorAddress","type":"address"}],"name":"getDepositIndex","outputs":[{"internalType":"bool","name":"","type":"bool"},{"internalType":"uint256","name":"","type":"uint256"},{"internalType":"uint256","name":"","type":"uint256"}],"stateMutability":"view","type":"function"},{"inputs":[{"internalType":"address","name":"_depositorAddress","type":"address"}],"name":"getDepositsByOwner","outputs":[{"components":[{"internalType":"uint256","name":"depositId","type":"uint256"},{"internalType":"address","name":"depositorAddress","type":"address"},{"internalType":"uint256","name":"amount","type":"uint256"},{"internalType":"uint256","name":"creationTime","type":"uint256"},{"internalType":"uint256","name":"maturityTime","type":"uint256"}],"internalType":"struct Arch911Contract.Deposit[]","name":"","type":"tuple[]"}],"stateMutability":"view","type":"function"},{"inputs":[],"name":"getVaultDetails","outputs":[{"internalType":"uint256","name":"","type":"uint256"},{"internalType":"uint256","name":"","type":"uint256"},{"internalType":"uint256","name":"","type":"uint256"},{"internalType":"uint256","name":"","type":"uint256"}],"stateMutability":"view","type":"function"},{"inputs":[{"internalType":"uint256","name":"_depositId","type":"uint256"}],"name":"getWatchesOnDeposit","outputs":[{"components":[{"internalType":"address","name":"depositorAddress","type":"address"},{"internalType":"address","name":"watcherAddress","type":"address"},{"internalType":"uint256","name":"watchCreationTime","type":"uint256"}],"internalType":"struct Arch911Contract.Watch[]","name":"","type":"tuple[]"}],"stateMutability":"view","type":"function"},{"inputs":[],"name":"numOfDeposits","outputs":[{"internalType":"uint256","name":"","type":"uint256"}],"stateMutability":"view","type":"function"},{"inputs":[],"name":"numOfUniqueDepositors","outputs":[{"internalType":"uint256","name":"","type":"uint256"}],"stateMutability":"view","type":"function"},{"inputs":[],"name":"numberOfWatch","outputs":[{"internalType":"uint256","name":"","type":"uint256"}],"stateMutability":"view","type":"function"},{"inputs":[],"name":"owner","outputs":[{"internalType":"address","name":"","type":"address"}],"stateMutability":"view","type":"function"},{"inputs":[],"name":"priceFeed","outputs":[{"internalType":"contract AggregatorV3Interface","name":"","type":"address"}],"stateMutability":"view","type":"function"},{"inputs":[],"name":"renounceOwnership","outputs":[],"stateMutability":"nonpayable","type":"function"},{"inputs":[{"internalType":"uint256","name":"_depositId","type":"uint256"}],"name":"submitWithdrawRequest","outputs":[],"stateMutability":"nonpayable","type":"function"},{"inputs":[],"name":"totalDepositValue","outputs":[{"internalType":"uint256","name":"","type":"uint256"}],"stateMutability":"view","type":"function"},{"inputs":[],"name":"totalVaultValue","outputs":[{"internalType":"uint256","name":"","type":"uint256"}],"stateMutability":"view","type":"function"},{"inputs":[{"internalType":"address","name":"newOwner","type":"address"}],"name":"transferOwnership","outputs":[],"stateMutability":"nonpayable","type":"function"},{"inputs":[],"name":"watchCreationFees","outputs":[{"internalType":"uint256","name":"","type":"uint256"}],"stateMutability":"view","type":"function"},{"inputs":[{"internalType":"uint256","name":"_depositId","type":"uint256"}],"name":"withdraw","outputs":[],"stateMutability":"nonpayable","type":"function"}],"bytecode":"608060405266033c8cb763f000600655607860075534801561002057600080fd5b5060405161167238038061167283398101604081905261003f916100bd565b6100483361006d565b600a80546001600160a01b0319166001600160a01b03929092169190911790556100ed565b600080546001600160a01b038381166001600160a01b0319831681178455604051919092169283917f8be0079c531659141344cd1fd0a4f28419497f9722a3daafe3b4186f6b6457e09190a35050565b6000602082840312156100cf57600080fd5b81516001600160a01b03811681146100e657600080fd5b9392505050565b611576806100fc6000396000f3fe6080604052600436106101145760003560e01c80638da5cb5b116100a0578063bd194db011610064578063bd194db014610317578063c41f9dd71461032d578063cd16ebf714610343578063d444910714610359578063f2fde38b1461036c57600080fd5b80638da5cb5b14610270578063a8944c6a1461028e578063afbc74b9146102a4578063b6600ddb146102ba578063baeca505146102f757600080fd5b80634a58db19116100e75780634a58db19146101c2578063533092ef146101ca5780636a0ee73514610203578063715018a614610223578063741bef1a1461023857600080fd5b806311aeb02a1461011957806322271c1c1461014f5780632e1a7d4d1461017c578063472d39eb1461019e575b600080fd5b34801561012557600080fd5b50610139610134366004611314565b61038c565b6040516101469190611336565b60405180910390f35b34801561015b57600080fd5b5061016f61016a3660046113ad565b610436565b60405161014691906113c6565b34801561018857600080fd5b5061019c6101973660046113ad565b6104c5565b005b3480156101aa57600080fd5b506101b460055481565b604051908152602001610146565b61019c610a21565b3480156101d657600080fd5b50600154600254600454600554604080519485526020850193909352918301526060820152608001610146565b34801561020f57600080fd5b5061019c61021e36600461141e565b610bf2565b34801561022f57600080fd5b5061019c610d39565b34801561024457600080fd5b50600a54610258906001600160a01b031681565b6040516001600160a01b039091168152602001610146565b34801561027c57600080fd5b506000546001600160a01b0316610258565b34801561029a57600080fd5b506101b460065481565b3480156102b057600080fd5b506101b460035481565b3480156102c657600080fd5b506102da6102d536600461144f565b610d9f565b604080519315158452602084019290925290820152606001610146565b34801561030357600080fd5b5061019c6103123660046113ad565b610e3c565b34801561032357600080fd5b506101b460025481565b34801561033957600080fd5b506101b460045481565b34801561034f57600080fd5b506101b460015481565b61019c61036736600461144f565b61107e565b34801561037857600080fd5b5061019c610387366004611314565b6111dd565b6001600160a01b0381166000908152600860209081526040808320805482518185028101850190935280835260609492939192909184015b8282101561042b5760008481526020908190206040805160a08101825260058602909201805483526001808201546001600160a01b0316848601526002820154928401929092526003810154606084015260040154608083015290835290920191016103c4565b505050509050919050565b606060096000838152602001908152602001600020805480602002602001604051908101604052809291908181526020016000905b8282101561042b576000848152602090819020604080516060810182526003860290920180546001600160a01b0390811684526001808301549091168486015260029091015491830191909152908352909201910161046b565b60008060006104d48433610d9f565b925092509250826105215760405162461bcd60e51b81526020600482015260126024820152714465706f736974206e6f7420666f756e642160701b60448201526064015b60405180910390fd5b3360008181526008602052604090208054849081106105425761054261147b565b60009182526020909120600160059092020101546001600160a01b03161461059e5760405162461bcd60e51b815260206004820152600f60248201526e4e6f7420617574686f72697365642160881b6044820152606401610518565b3360009081526008602052604090208054839081106105bf576105bf61147b565b90600052602060002090600502016004015460086000336001600160a01b03166001600160a01b0316815260200190815260200160002083815481106106075761060761147b565b90600052602060002090600502016003015414156106775760405162461bcd60e51b815260206004820152602760248201527f4465706f7369742077697468647261772072657175657374206e6f74207375626044820152666d69747465642160c81b6064820152608401610518565b3360009081526008602052604090208054839081106106985761069861147b565b90600052602060002090600502016004015442101561070d5760405162461bcd60e51b815260206004820152602b60248201527f4465706f736974207769746864726177206d61747572697479206e6f7420616360448201526a686965766564207965742160a81b6064820152608401610518565b33600090815260086020526040812080548490811061072e5761072e61147b565b60009182526020822060026005909202010154604051909250339183156108fc02918491818181858888f1935050505015801561076f573d6000803e3d6000fd5b506107ab6040518060a001604052806000815260200160006001600160a01b031681526020016000815260200160008152602001600081525090565b3360009081526008602052604090208054859081106107cc576107cc61147b565b600091825260208083206040805160a0810182526005909402909101805484526001808201546001600160a01b03168585015260028201548584015260038201546060860152600490910154608085015233855260089092529092209092509061083690856114a7565b815481106108465761084661147b565b906000526020600020906005020160086000336001600160a01b03166001600160a01b03168152602001908152602001600020858154811061088a5761088a61147b565b60009182526020808320845460059093020191825560018085015481840180546001600160a01b0319166001600160a01b039092169190911790556002808601549084015560038086015490840155600494850154949092019390935533825260089092526040902082916108ff90866114a7565b8154811061090f5761090f61147b565b60009182526020808320845160059390930201918255838101516001830180546001600160a01b0319166001600160a01b039092169190911790556040808501516002840155606085015160038401556080909401516004909201919091553382526008905220805480610985576109856114be565b600082815260208120600560001990930192830201818155600181810180546001600160a01b031916905560028201839055600382018390556004909101829055919092558054916109d6836114d4565b919050555081600460008282546109ed91906114a7565b925050819055508160036000828254610a0691906114a7565b90915550508051610a1990600190610bf2565b505050505050565b60004233604051602001610a5192919091825260601b6bffffffffffffffffffffffff1916602082015260340190565b60408051808303601f190181528282528051602091820120336000818152600880855285822060a088018752848852858801848152349789018881524260608b0181815260808c019182528454600180820187558689528b89209d516005909202909d019081559351848d0180546001600160a01b0319166001600160a01b03909216919091179055915160028401559051600383015551600490910155918390529093529154909450919290911415610b1b5760028054906000610b15836114eb565b91905055505b60018054906000610b2b836114eb565b91905055508160046000828254610b429190611506565b925050819055508160036000828254610b5b9190611506565b90915550506000838152600960209081526040808320815160608101835233808252818501908152429382019384528254600180820185559387529486209151600390950290910180546001600160a01b03199081166001600160a01b039687161782559151928101805490921692909416919091179055516002909101556005805491610be8836114eb565b9190505550505050565b6000818152600960205260409020548015610d345760005b81811015610d325760006001610c2083856114a7565b610c2a91906114a7565b60008581526009602052604081208054929350909183908110610c4f57610c4f61147b565b60009182526020909120600160039092020101546006546001600160a01b03909116915081906108fc90610c8590600a9061151e565b6040518115909202916000818181858888f19350505050158015610cad573d6000803e3d6000fd5b508515610d1d576000858152600960205260409020805480610cd157610cd16114be565b60008281526020812060036000199093019283020180546001600160a01b03199081168255600182018054909116905560020181905591556005805491610d17836114d4565b91905055505b50508080610d2a906114eb565b915050610c0a565b505b505050565b6000546001600160a01b03163314610d935760405162461bcd60e51b815260206004820181905260248201527f4f776e61626c653a2063616c6c6572206973206e6f7420746865206f776e65726044820152606401610518565b610d9d60006112a8565b565b6001600160a01b03811660009081526008602052604081205481908190815b81811015610e2a576001600160a01b0386166000908152600860205260409020805488919083908110610df357610df361147b565b9060005260206000209060050201600001541415610e18576001945092509050610e35565b80610e22816114eb565b915050610dbe565b506000935083925090505b9250925092565b600080610e498333610d9f565b509150915081610e905760405162461bcd60e51b81526020600482015260126024820152714465706f736974206e6f7420666f756e642160701b6044820152606401610518565b336000818152600860205260409020805483908110610eb157610eb161147b565b60009182526020909120600160059092020101546001600160a01b031614610f0d5760405162461bcd60e51b815260206004820152600f60248201526e4e6f7420617574686f72697365642160881b6044820152606401610518565b336000908152600860205260409020805482908110610f2e57610f2e61147b565b90600052602060002090600502016004015460086000336001600160a01b03166001600160a01b031681526020019081526020016000208281548110610f7657610f7661147b565b90600052602060002090600502016003015414610fe15760405162461bcd60e51b815260206004820152602360248201527f4465706f73697420776974686472617720616c7265616479207375626d69747460448201526265642160e81b6064820152608401610518565b600060075442610ff19190611506565b33600090815260086020526040902080549192508291849081106110175761101761147b565b906000526020600020906005020160040181905550610d32600060086000336001600160a01b03166001600160a01b0316815260200190815260200160002084815481106110675761106761147b565b906000526020600020906005020160000154610bf2565b6006543410156110dc5760405162461bcd60e51b8152602060048201526024808201527f302e30303039312045544820726571756972656420746f2063726561746520576044820152630c2e8c6d60e31b6064820152608401610518565b60006110e88383610d9f565b50509050806111395760405162461bcd60e51b815260206004820152601f60248201527f4e6f204465706f736974732065786973747320666f72206164647265737321006044820152606401610518565b600083815260096020908152604080832081516060810183526001600160a01b0387811682523382860190815242948301948552835460018082018655948852959096209151600390950290910180546001600160a01b031990811695831695909517815594518583018054909516911617909255516002909201919091556005546111c491611506565b6005556003546111d5903490611506565b600355505050565b6000546001600160a01b031633146112375760405162461bcd60e51b815260206004820181905260248201527f4f776e61626c653a2063616c6c6572206973206e6f7420746865206f776e65726044820152606401610518565b6001600160a01b03811661129c5760405162461bcd60e51b815260206004820152602660248201527f4f776e61626c653a206e6577206f776e657220697320746865207a65726f206160448201526564647265737360d01b6064820152608401610518565b6112a5816112a8565b50565b600080546001600160a01b038381166001600160a01b0319831681178455604051919092169283917f8be0079c531659141344cd1fd0a4f28419497f9722a3daafe3b4186f6b6457e09190a35050565b80356001600160a01b038116811461130f57600080fd5b919050565b60006020828403121561132657600080fd5b61132f826112f8565b9392505050565b602080825282518282018190526000919060409081850190868401855b828110156113a057815180518552868101516001600160a01b0316878601528581015186860152606080820151908601526080908101519085015260a09093019290850190600101611353565b5091979650505050505050565b6000602082840312156113bf57600080fd5b5035919050565b602080825282518282018190526000919060409081850190868401855b828110156113a057815180516001600160a01b03908116865287820151168786015285015185850152606090930192908501906001016113e3565b6000806040838503121561143157600080fd5b8235801515811461144157600080fd5b946020939093013593505050565b6000806040838503121561146257600080fd5b82359150611472602084016112f8565b90509250929050565b634e487b7160e01b600052603260045260246000fd5b634e487b7160e01b600052601160045260246000fd5b6000828210156114b9576114b9611491565b500390565b634e487b7160e01b600052603160045260246000fd5b6000816114e3576114e3611491565b506000190190565b60006000198214156114ff576114ff611491565b5060010190565b6000821982111561151957611519611491565b500190565b60008261153b57634e487b7160e01b600052601260045260246000fd5b50049056fea2646970667358221220df85a87d5a09973dd405296a6a5cec1f2baee48dbeeb4c14c6fd00583fc0ed4664736f6c634300080b0033","bytecodeSha1":"04471d41b564524697462972df235fec71e5c3ea","compiler":{"evm_version":"istanbul","optimizer":{"enabled":true,"runs":200},"version":"0.8.11+commit.d7f03943"},"contractName":"Arch911Contract","language":"Solidity","natspec":{"kind":"dev","methods":{"owner()":{"details":"Returns the address of the current owner."},"renounceOwnership()":{"details":"Leaves the contract without owner. It will not be possible to call `onlyOwner` functions anymore. Can only be called by the current owner. NOTE: Renouncing ownership will leave the contract without an owner, thereby removing any functionality that is only available to the owner."},"transferOwnership(address)":{"details":"Transfers ownership of the contract to a new account (`newOwner`). Can only be called by the current owner."}},"version":1},"opcodes":"PUSH1 0x80 PUSH1 0x40 MSTORE PUSH1 0x4 CALLDATASIZE LT PUSH2 0x114 JUMPI PUSH1 0x0 CALLDATALOAD PUSH1 0xE0 SHR DUP1 PUSH4 0x8DA5CB5B GT PUSH2 0xA0 JUMPI DUP1 PUSH4 0xBD194DB0 GT PUSH2 0x64 JUMPI DUP1 PUSH4 0xBD194DB0 EQ PUSH2 0x317 JUMPI DUP1 PUSH4 0xC41F9DD7 EQ PUSH2 0x32D JUMPI DUP1 PUSH4 0xCD16EBF7 EQ PUSH2 0x343 JUMPI DUP1 PUSH4 0xD4449107 EQ PUSH2 0x359 JUMPI DUP1 PUSH4 0xF2FDE38B EQ PUSH2 0x36C JUMPI PUSH1 0x0 DUP1 REVERT JUMPDEST DUP1 PUSH4 0x8DA5CB5B EQ PUSH2 0x270 JUMPI DUP1 PUSH4 0xA8944C6A EQ PUSH2 0x28E JUMPI DUP1 PUSH4 0xAFBC74B9 EQ PUSH2 0x2A4 JUMPI DUP1 PUSH4 0xB6600DDB EQ PUSH2 0x2BA JUMPI DUP1 PUSH4 0xBAECA505 EQ PUSH2 0x2F7 JUMPI PUSH1 0x0 DUP1 REVERT JUMPDEST DUP1 PUSH4 0x4A58DB19 GT PUSH2 0xE7 JUMPI DUP1 PUSH4 0x4A58DB19 EQ PUSH2 0x1C2 JUMPI DUP1 PUSH4 0x533092EF EQ PUSH2 0x1CA JUMPI DUP1 PUSH4 0x6A0EE735 EQ PUSH2 0x203 JUMPI DUP1 PUSH4 0x715018A6 EQ PUSH2 0x223 JUMPI DUP1 PUSH4 0x741BEF1A EQ PUSH2 0x238 JUMPI PUSH1 0x0 DUP1 REVERT JUMPDEST DUP1 PUSH4 0x11AEB02A EQ PUSH2 0x119 JUMPI DUP1 PUSH4 0x22271C1C EQ PUSH2 0x14F JUMPI DUP1 PUSH4 0x2E1A7D4D EQ PUSH2 0x17C JUMPI DUP1 PUSH4 0x472D39EB EQ PUSH2 0x19E JUMPI JUMPDEST PUSH1 0x0 DUP1 REVERT JUMPDEST CALLVALUE DUP1 ISZERO PUSH2 0x125 JUMPI PUSH1 0x0 DUP1 REVERT JUMPDEST POP PUSH2 0x139 PUSH2 0x134 CALLDATASIZE PUSH1 0x4 PUSH2 0x1314 JUMP JUMPDEST PUSH2 0x38C JUMP JUMPDEST PUSH1 0x40 MLOAD PUSH2 0x146 SWAP2 SWAP1 PUSH2 0x1336 JUMP JUMPDEST PUSH1 0x40 MLOAD DUP1 SWAP2 SUB SWAP1 RETURN JUMPDEST CALLVALUE DUP1 ISZERO PUSH2 0x15B JUMPI PUSH1 0x0 DUP1 REVERT JUMPDEST POP PUSH2 0x16F PUSH2 0x16A CALLDATASIZE PUSH1 0x4 PUSH2 0x13AD JUMP JUMPDEST PUSH2 0x436 JUMP JUMPDEST PUSH1 0x40 MLOAD PUSH2 0x146 SWAP2 SWAP1 PUSH2 0x13C6 JUMP JUMPDEST CALLVALUE DUP1 ISZERO PUSH2 0x188 JUMPI PUSH1 0x0 DUP1 REVERT JUMPDEST POP PUSH2 0x19C PUSH2 0x197 CALLDATASIZE PUSH1 0x4 PUSH2 0x13AD JUMP JUMPDEST PUSH2 0x4C5 JUMP JUMPDEST STOP JUMPDEST CALLVALUE DUP1 ISZERO PUSH2 0x1AA JUMPI PUSH1 0x0 DUP1 REVERT JUMPDEST POP PUSH2 0x1B4 PUSH1 0x5 SLOAD DUP2 JUMP JUMPDEST PUSH1 0x40 MLOAD SWAP1 DUP2 MSTORE PUSH1 0x20 ADD PUSH2 0x146 JUMP JUMPDEST PUSH2 0x19C PUSH2 0xA21 JUMP JUMPDEST CALLVALUE DUP1 ISZERO PUSH2 0x1D6 JUMPI PUSH1 0x0 DUP1 REVERT JUMPDEST POP PUSH1 0x1 SLOAD PUSH1 0x2 SLOAD PUSH1 0x4 SLOAD PUSH1 0x5 SLOAD PUSH1 0x40 DUP1 MLOAD SWAP5 DUP6 MSTORE PUSH1 0x20 DUP6 ADD SWAP4 SWAP1 SWAP4 MSTORE SWAP2 DUP4 ADD MSTORE PUSH1 0x60 DUP3 ADD MSTORE PUSH1 0x80 ADD PUSH2 0x146 JUMP JUMPDEST CALLVALUE DUP1 ISZERO PUSH2 0x20F JUMPI PUSH1 0x0 DUP1 REVERT JUMPDEST POP PUSH2 0x19C PUSH2 0x21E CALLDATASIZE PUSH1 0x4 PUSH2 0x141E JUMP JUMPDEST PUSH2 0xBF2 JUMP JUMPDEST CALLVALUE DUP1 ISZERO PUSH2 0x22F JUMPI PUSH1 0x0 DUP1 REVERT JUMPDEST POP PUSH2 0x19C PUSH2 0xD39 JUMP JUMPDEST CALLVALUE DUP1 ISZERO PUSH2 0x244 JUMPI PUSH1 0x0 DUP1 REVERT JUMPDEST POP PUSH1 0xA SLOAD PUSH2 0x258 SWAP1 PUSH1 0x1 PUSH1 0x1 PUSH1 0xA0 SHL SUB AND DUP2 JUMP JUMPDEST PUSH1 0x40 MLOAD PUSH1 0x1 PUSH1 0x1 PUSH1 0xA0 SHL SUB SWAP1 SWAP2 AND DUP2 MSTORE PUSH1 0x20 ADD PUSH2 0x146 JUMP JUMPDEST CALLVALUE DUP1 ISZERO PUSH2 0x27C JUMPI PUSH1 0x0 DUP1 REVERT JUMPDEST POP PUSH1 0x0 SLOAD PUSH1 0x1 PUSH1 0x1 PUSH1 0xA0 SHL SUB AND PUSH2 0x258 JUMP JUMPDEST CALLVALUE DUP1 ISZERO PUSH2 0x29A JUMPI PUSH1 0x0 DUP1 REVERT JUMPDEST POP PUSH2 0x1B4 PUSH1 0x6 SLOAD DUP2 JUMP JUMPDEST CALLVALUE DUP1 ISZERO PUSH2 0x2B0 JUMPI PUSH1 0x0 DUP1 REVERT JUMPDEST POP PUSH2 0x1B4 PUSH1 0x3 SLOAD DUP2 JUMP JUMPDEST CALLVALUE DUP1 ISZERO PUSH2 0x2C6 JUMPI PUSH1 0x0 DUP1 REVERT JUMPDEST POP PUSH2 0x2DA PUSH2 0x2D5 CALLDATASIZE PUSH1 0x4 PUSH2 0x144F JUMP JUMPDEST PUSH2 0xD9F JUMP JUMPDEST PUSH1 0x40 DUP1 MLOAD SWAP4 ISZERO ISZERO DUP5 MSTORE PUSH1 0x20 DUP5 ADD SWAP3 SWAP1 SWAP3 MSTORE SWAP1 DUP3 ADD MSTORE PUSH1 0x60 ADD PUSH2 0x146 JUMP JUMPDEST CALLVALUE DUP1 ISZERO PUSH2 0x303 JUMPI PUSH1 0x0 DUP1 REVERT JUMPDEST POP PUSH2 0x19C PUSH2 0x312 CALLDATASIZE PUSH1 0x4 PUSH2 0x13AD JUMP JUMPDEST PUSH2 0xE3C JUMP JUMPDEST CALLVALUE DUP1 ISZERO PUSH2 0x323 JUMPI PUSH1 0x0 DUP1 REVERT JUMPDEST POP PUSH2 0x1B4 PUSH1 0x2 SLOAD DUP2 JUMP JUMPDEST CALLVALUE DUP1 ISZERO PUSH2 0x339 JUMPI PUSH1 0x0 DUP1 REVERT JUMPDEST POP PUSH2 0x1B4 PUSH1 0x4 SLOAD DUP2 JUMP JUMPDEST CALLVALUE DUP1 ISZERO PUSH2 0x34F JUMPI PUSH1 0x0 DUP1 REVERT JUMPDEST POP PUSH2 0x1B4 PUSH1 0x1 SLOAD DUP2 JUMP JUMPDEST PUSH2 0x19C PUSH2 0x367 CALLDATASIZE PUSH1 0x4 PUSH2 0x144F JUMP JUMPDEST PUSH2 0x107E JUMP JUMPDEST CALLVALUE DUP1 ISZERO PUSH2 0x378 JUMPI PUSH1 0x0 DUP1 REVERT JUMPDEST POP PUSH2 0x19C PUSH2 0x387 CALLDATASIZE PUSH1 0x4 PUSH2 0x1314 JUMP JUMPDEST PUSH2 0x11DD JUMP JUMPDEST PUSH1 0x1 PUSH1 0x1 PUSH1 0xA0 SHL SUB DUP2 AND PUSH1 0x0 SWAP1 DUP2 MSTORE PUSH1 0x8 PUSH1 0x20 SWAP1 DUP2 MSTORE PUSH1 0x40 DUP1 DUP4 KECCAK256 DUP1 SLOAD DUP3 MLOAD DUP2 DUP6 MUL DUP2 ADD DUP6 ADD SWAP1 SWAP4 MSTORE DUP1 DUP4 MSTORE PUSH1 0x60 SWAP5 SWAP3 SWAP4 SWAP2 SWAP3 SWAP1 SWAP2 DUP5 ADD JUMPDEST DUP3 DUP3 LT ISZERO PUSH2 0x42B JUMPI PUSH1 0x0 DUP5 DUP2 MSTORE PUSH1 0x20 SWAP1 DUP2 SWAP1 KECCAK256 PUSH1 0x40 DUP1 MLOAD PUSH1 0xA0 DUP2 ADD DUP3 MSTORE PUSH1 0x5 DUP7 MUL SWAP1 SWAP3 ADD DUP1 SLOAD DUP4 MSTORE PUSH1 0x1 DUP1 DUP3 ADD SLOAD PUSH1 0x1 PUSH1 0x1 PUSH1 0xA0 SHL SUB AND DUP5 DUP7 ADD MSTORE PUSH1 0x2 DUP3 ADD SLOAD SWAP3 DUP5 ADD SWAP3 SWAP1 SWAP3 MSTORE PUSH1 0x3 DUP2 ADD SLOAD PUSH1 0x60 DUP5 ADD MSTORE PUSH1 0x4 ADD SLOAD PUSH1 0x80 DUP4 ADD MSTORE SWAP1 DUP4 MSTORE SWAP1 SWAP3 ADD SWAP2 ADD PUSH2 0x3C4 JUMP JUMPDEST POP POP POP POP SWAP1 POP SWAP2 SWAP1 POP JUMP JUMPDEST PUSH1 0x60 PUSH1 0x9 PUSH1 0x0 DUP4 DUP2 MSTORE PUSH1 0x20 ADD SWAP1 DUP2 MSTORE PUSH1 0x20 ADD PUSH1 0x0 KECCAK256 DUP1 SLOAD DUP1 PUSH1 0x20 MUL PUSH1 0x20 ADD PUSH1 0x40 MLOAD SWAP1 DUP2 ADD PUSH1 0x40 MSTORE DUP1 SWAP3 SWAP2 SWAP1 DUP2 DUP2 MSTORE PUSH1 0x20 ADD PUSH1 0x0 SWAP1 JUMPDEST DUP3 DUP3 LT ISZERO PUSH2 0x42B JUMPI PUSH1 0x0 DUP5 DUP2 MSTORE PUSH1 0x20 SWAP1 DUP2 SWAP1 KECCAK256 PUSH1 0x40 DUP1 MLOAD PUSH1 0x60 DUP2 ADD DUP3 MSTORE PUSH1 0x3 DUP7 MUL SWAP1 SWAP3 ADD DUP1 SLOAD PUSH1 0x1 PUSH1 0x1 PUSH1 0xA0 SHL SUB SWAP1 DUP2 AND DUP5 MSTORE PUSH1 0x1 DUP1 DUP4 ADD SLOAD SWAP1 SWAP2 AND DUP5 DUP7 ADD MSTORE PUSH1 0x2 SWAP1 SWAP2 ADD SLOAD SWAP2 DUP4 ADD SWAP2 SWAP1 SWAP2 MSTORE SWAP1 DUP4 MSTORE SWAP1 SWAP3 ADD SWAP2 ADD PUSH2 0x46B JUMP JUMPDEST PUSH1 0x0 DUP1 PUSH1 0x0 PUSH2 0x4D4 DUP5 CALLER PUSH2 0xD9F JUMP JUMPDEST SWAP3 POP SWAP3 POP SWAP3 POP DUP3 PUSH2 0x521 JUMPI PUSH1 0x40 MLOAD PUSH3 0x461BCD PUSH1 0xE5 SHL DUP2 MSTORE PUSH1 0x20 PUSH1 0x4 DUP3 ADD MSTORE PUSH1 0x12 PUSH1 0x24 DUP3 ADD MSTORE PUSH18 0x4465706F736974206E6F7420666F756E6421 PUSH1 0x70 SHL PUSH1 0x44 DUP3 ADD MSTORE PUSH1 0x64 ADD JUMPDEST PUSH1 0x40 MLOAD DUP1 SWAP2 SUB SWAP1 REVERT JUMPDEST CALLER PUSH1 0x0 DUP2 DUP2 MSTORE PUSH1 0x8 PUSH1 0x20 MSTORE PUSH1 0x40 SWAP1 KECCAK256 DUP1 SLOAD DUP5 SWAP1 DUP2 LT PUSH2 0x542 JUMPI PUSH2 0x542 PUSH2 0x147B JUMP JUMPDEST PUSH1 0x0 SWAP2 DUP3 MSTORE PUSH1 0x20 SWAP1 SWAP2 KECCAK256 PUSH1 0x1 PUSH1 0x5 SWAP1 SWAP3 MUL ADD ADD SLOAD PUSH1 0x1 PUSH1 0x1 PUSH1 0xA0 SHL SUB AND EQ PUSH2 0x59E JUMPI PUSH1 0x40 MLOAD PUSH3 0x461BCD PUSH1 0xE5 SHL DUP2 MSTORE PUSH1 0x20 PUSH1 0x4 DUP3 ADD MSTORE PUSH1 0xF PUSH1 0x24 DUP3 ADD MSTORE PUSH15 0x4E6F7420617574686F726973656421 PUSH1 0x88 SHL PUSH1 0x44 DUP3 ADD MSTORE PUSH1 0x64 ADD PUSH2 0x518 JUMP JUMPDEST CALLER PUSH1 0x0 SWAP1 DUP2 MSTORE PUSH1 0x8 PUSH1 0x20 MSTORE PUSH1 0x40 SWAP1 KECCAK256 DUP1 SLOAD DUP4 SWAP1 DUP2 LT PUSH2 0x5BF JUMPI PUSH2 0x5BF PUSH2 0x147B JUMP JUMPDEST SWAP1 PUSH1 0x0 MSTORE PUSH1 0x20 PUSH1 0x0 KECCAK256 SWAP1 PUSH1 0x5 MUL ADD PUSH1 0x4 ADD SLOAD PUSH1 0x8 PUSH1 0x0 CALLER PUSH1 0x1 PUSH1 0x1 PUSH1 0xA0 SHL SUB AND PUSH1 0x1 PUSH1 0x1 PUSH1 0xA0 SHL SUB AND DUP2 MSTORE PUSH1 0x20 ADD SWAP1 DUP2 MSTORE PUSH1 0x20 ADD PUSH1 0x0 KECCAK256 DUP4 DUP2 SLOAD DUP2 LT PUSH2 0x607 JUMPI PUSH2 0x607 PUSH2 0x147B JUMP JUMPDEST SWAP1 PUSH1 0x0 MSTORE PUSH1 0x20 PUSH1 0x0 KECCAK256 SWAP1 PUSH1 0x5 MUL ADD PUSH1 0x3 ADD SLOAD EQ ISZERO PUSH2 0x677 JUMPI PUSH1 0x40 MLOAD PUSH3 0x461BCD PUSH1 0xE5 SHL DUP2 MSTORE PUSH1 0x20 PUSH1 0x4 DUP3 ADD MSTORE PUSH1 0x27 PUSH1 0x24 DUP3 ADD MSTORE PUSH32 0x4465706F7369742077697468647261772072657175657374206E6F7420737562 PUSH1 0x44 DUP3 ADD MSTORE PUSH7 0x6D697474656421 PUSH1 0xC8 SHL PUSH1 0x64 DUP3 ADD MSTORE PUSH1 0x84 ADD PUSH2 0x518 JUMP JUMPDEST CALLER PUSH1 0x0 SWAP1 DUP2 MSTORE PUSH1 0x8 PUSH1 0x20 MSTORE PUSH1 0x40 SWAP1 KECCAK256 DUP1 SLOAD DUP4 SWAP1 DUP2 LT PUSH2 0x698 JUMPI PUSH2 0x698 PUSH2 0x147B JUMP JUMPDEST SWAP1 PUSH1 0x0 MSTORE PUSH1 0x20 PUSH1 0x0 KECCAK256 SWAP1 PUSH1 0x5 MUL ADD PUSH1 0x4 ADD SLOAD TIMESTAMP LT ISZERO PUSH2 0x70D JUMPI PUSH1 0x40 MLOAD PUSH3 0x461BCD PUSH1 0xE5 SHL DUP2 MSTORE PUSH1 0x20 PUSH1 0x4 DUP3 ADD MSTORE PUSH1 0x2B PUSH1 0x24 DUP3 ADD MSTORE PUSH32 0x4465706F736974207769746864726177206D61747572697479206E6F74206163 PUSH1 0x44 DUP3 ADD MSTORE PUSH11 0x6869657665642079657421 PUSH1 0xA8 SHL PUSH1 0x64 DUP3 ADD MSTORE PUSH1 0x84 ADD PUSH2 0x518 JUMP JUMPDEST CALLER PUSH1 0x0 SWAP1 DUP2 MSTORE PUSH1 0x8 PUSH1 0x20 MSTORE PUSH1 0x40 DUP2 KECCAK256 DUP1 SLOAD DUP5 SWAP1 DUP2 LT PUSH2 0x72E JUMPI PUSH2 0x72E PUSH2 0x147B JUMP JUMPDEST PUSH1 0x0 SWAP2 DUP3 MSTORE PUSH1 0x20 DUP3 KECCAK256 PUSH1 0x2 PUSH1 0x5 SWAP1 SWAP3 MUL ADD ADD SLOAD PUSH1 0x40 MLOAD SWAP1 SWAP3 POP CALLER SWAP2 DUP4 ISZERO PUSH2 0x8FC MUL SWAP2 DUP5 SWAP2 DUP2 DUP2 DUP2 DUP6 DUP9 DUP9 CALL SWAP4 POP POP POP POP ISZERO DUP1 ISZERO PUSH2 0x76F JUMPI RETURNDATASIZE PUSH1 0x0 DUP1 RETURNDATACOPY RETURNDATASIZE PUSH1 0x0 REVERT JUMPDEST POP PUSH2 0x7AB PUSH1 0x40 MLOAD DUP1 PUSH1 0xA0 ADD PUSH1 0x40 MSTORE DUP1 PUSH1 0x0 DUP2 MSTORE PUSH1 0x20 ADD PUSH1 0x0 PUSH1 0x1 PUSH1 0x1 PUSH1 0xA0 SHL SUB AND DUP2 MSTORE PUSH1 0x20 ADD PUSH1 0x0 DUP2 MSTORE PUSH1 0x20 ADD PUSH1 0x0 DUP2 MSTORE PUSH1 0x20 ADD PUSH1 0x0 DUP2 MSTORE POP SWAP1 JUMP JUMPDEST CALLER PUSH1 0x0 SWAP1 DUP2 MSTORE PUSH1 0x8 PUSH1 0x20 MSTORE PUSH1 0x40 SWAP1 KECCAK256 DUP1 SLOAD DUP6 SWAP1 DUP2 LT PUSH2 0x7CC JUMPI PUSH2 0x7CC PUSH2 0x147B JUMP JUMPDEST PUSH1 0x0 SWAP2 DUP3 MSTORE PUSH1 0x20 DUP1 DUP4 KECCAK256 PUSH1 0x40 DUP1 MLOAD PUSH1 0xA0 DUP2 ADD DUP3 MSTORE PUSH1 0x5 SWAP1 SWAP5 MUL SWAP1 SWAP2 ADD DUP1 SLOAD DUP5 MSTORE PUSH1 0x1 DUP1 DUP3 ADD SLOAD PUSH1 0x1 PUSH1 0x1 PUSH1 0xA0 SHL SUB AND DUP6 DUP6 ADD MSTORE PUSH1 0x2 DUP3 ADD SLOAD DUP6 DUP5 ADD MSTORE PUSH1 0x3 DUP3 ADD SLOAD PUSH1 0x60 DUP7 ADD MSTORE PUSH1 0x4 SWAP1 SWAP2 ADD SLOAD PUSH1 0x80 DUP6 ADD MSTORE CALLER DUP6 MSTORE PUSH1 0x8 SWAP1 SWAP3 MSTORE SWAP1 SWAP3 KECCAK256 SWAP1 SWAP3 POP SWAP1 PUSH2 0x836 SWAP1 DUP6 PUSH2 0x14A7 JUMP JUMPDEST DUP2 SLOAD DUP2 LT PUSH2 0x846 JUMPI PUSH2 0x846 PUSH2 0x147B JUMP JUMPDEST SWAP1 PUSH1 0x0 MSTORE PUSH1 0x20 PUSH1 0x0 KECCAK256 SWAP1 PUSH1 0x5 MUL ADD PUSH1 0x8 PUSH1 0x0 CALLER PUSH1 0x1 PUSH1 0x1 PUSH1 0xA0 SHL SUB AND PUSH1 0x1 PUSH1 0x1 PUSH1 0xA0 SHL SUB AND DUP2 MSTORE PUSH1 0x20 ADD SWAP1 DUP2 MSTORE PUSH1 0x20 ADD PUSH1 0x0 KECCAK256 DUP6 DUP2 SLOAD DUP2 LT PUSH2 0x88A JUMPI PUSH2 0x88A PUSH2 0x147B JUMP JUMPDEST PUSH1 0x0 SWAP2 DUP3 MSTORE PUSH1 0x20 DUP1 DUP4 KECCAK256 DUP5 SLOAD PUSH1 0x5 SWAP1 SWAP4 MUL ADD SWAP2 DUP3 SSTORE PUSH1 0x1 DUP1 DUP6 ADD SLOAD DUP2 DUP5 ADD DUP1 SLOAD PUSH1 0x1 PUSH1 0x1 PUSH1 0xA0 SHL SUB NOT AND PUSH1 0x1 PUSH1 0x1 PUSH1 0xA0 SHL SUB SWAP1 SWAP3 AND SWAP2 SWAP1 SWAP2 OR SWAP1 SSTORE PUSH1 0x2 DUP1 DUP7 ADD SLOAD SWAP1 DUP5 ADD SSTORE PUSH1 0x3 DUP1 DUP7 ADD SLOAD SWAP1 DUP5 ADD SSTORE PUSH1 0x4 SWAP5 DUP6 ADD SLOAD SWAP5 SWAP1 SWAP3 ADD SWAP4 SWAP1 SWAP4 SSTORE CALLER DUP3 MSTORE PUSH1 0x8 SWAP1 SWAP3 MSTORE PUSH1 0x40 SWAP1 KECCAK256 DUP3 SWAP2 PUSH2 0x8FF SWAP1 DUP7 PUSH2 0x14A7 JUMP JUMPDEST DUP2 SLOAD DUP2 LT PUSH2 0x90F JUMPI PUSH2 0x90F PUSH2 0x147B JUMP JUMPDEST PUSH1 0x0 SWAP2 DUP3 MSTORE PUSH1 0x20 DUP1 DUP4 KECCAK256 DUP5 MLOAD PUSH1 0x5 SWAP4 SWAP1 SWAP4 MUL ADD SWAP2 DUP3 SSTORE DUP4 DUP2 ADD MLOAD PUSH1 0x1 DUP4 ADD DUP1 SLOAD PUSH1 0x1 PUSH1 0x1 PUSH1 0xA0 SHL SUB NOT AND PUSH1 0x1 PUSH1 0x1 PUSH1 0xA0 SHL SUB SWAP1 SWAP3 AND SWAP2 SWAP1 SWAP2 OR SWAP1 SSTORE PUSH1 0x40 DUP1 DUP6 ADD MLOAD PUSH1 0x2 DUP5 ADD SSTORE PUSH1 0x60 DUP6 ADD MLOAD PUSH1 0x3 DUP5 ADD SSTORE PUSH1 0x80 SWAP1 SWAP5 ADD MLOAD PUSH1 0x4 SWAP1 SWAP3 ADD SWAP2 SWAP1 SWAP2 SSTORE CALLER DUP3 MSTORE PUSH1 0x8 SWAP1 MSTORE KECCAK256 DUP1 SLOAD DUP1 PUSH2 0x985 JUMPI PUSH2 0x985 PUSH2 0x14BE JUMP JUMPDEST PUSH1 0x0 DUP3 DUP2 MSTORE PUSH1 0x20 DUP2 KECCAK256 PUSH1 0x5 PUSH1 0x0 NOT SWAP1 SWAP4 ADD SWAP3 DUP4 MUL ADD DUP2 DUP2 SSTORE PUSH1 0x1 DUP2 DUP2 ADD DUP1 SLOAD PUSH1 0x1 PUSH1 0x1 PUSH1 0xA0 SHL SUB NOT AND SWAP1 SSTORE PUSH1 0x2 DUP3 ADD DUP4 SWAP1 SSTORE PUSH1 0x3 DUP3 ADD DUP4 SWAP1 SSTORE PUSH1 0x4 SWAP1 SWAP2 ADD DUP3 SWAP1 SSTORE SWAP2 SWAP1 SWAP3 SSTORE DUP1 SLOAD SWAP2 PUSH2 0x9D6 DUP4 PUSH2 0x14D4 JUMP JUMPDEST SWAP2 SWAP1 POP SSTORE POP DUP2 PUSH1 0x4 PUSH1 0x0 DUP3 DUP3 SLOAD PUSH2 0x9ED SWAP2 SWAP1 PUSH2 0x14A7 JUMP JUMPDEST SWAP3 POP POP DUP2 SWAP1 SSTORE POP DUP2 PUSH1 0x3 PUSH1 0x0 DUP3 DUP3 SLOAD PUSH2 0xA06 SWAP2 SWAP1 PUSH2 0x14A7 JUMP JUMPDEST SWAP1 SWAP2 SSTORE POP POP DUP1 MLOAD PUSH2 0xA19 SWAP1 PUSH1 0x1 SWAP1 PUSH2 0xBF2 JUMP JUMPDEST POP POP POP POP POP POP JUMP JUMPDEST PUSH1 0x0 TIMESTAMP CALLER PUSH1 0x40 MLOAD PUSH1 0x20 ADD PUSH2 0xA51 SWAP3 SWAP2 SWAP1 SWAP2 DUP3 MSTORE PUSH1 0x60 SHL PUSH12 0xFFFFFFFFFFFFFFFFFFFFFFFF NOT AND PUSH1 0x20 DUP3 ADD MSTORE PUSH1 0x34 ADD SWAP1 JUMP JUMPDEST PUSH1 0x40 DUP1 MLOAD DUP1 DUP4 SUB PUSH1 0x1F NOT ADD DUP2 MSTORE DUP3 DUP3 MSTORE DUP1 MLOAD PUSH1 0x20 SWAP2 DUP3 ADD KECCAK256 CALLER PUSH1 0x0 DUP2 DUP2 MSTORE PUSH1 0x8 DUP1 DUP6 MSTORE DUP6 DUP3 KECCAK256 PUSH1 0xA0 DUP9 ADD DUP8 MSTORE DUP5 DUP9 MSTORE DUP6 DUP9 ADD DUP5 DUP2 MSTORE CALLVALUE SWAP8 DUP10 ADD DUP9 DUP2 MSTORE TIMESTAMP PUSH1 0x60 DUP12 ADD DUP2 DUP2 MSTORE PUSH1 0x80 DUP13 ADD SWAP2 DUP3 MSTORE DUP5 SLOAD PUSH1 0x1 DUP1 DUP3 ADD DUP8 SSTORE DUP7 DUP10 MSTORE DUP12 DUP10 KECCAK256 SWAP14 MLOAD PUSH1 0x5 SWAP1 SWAP3 MUL SWAP1 SWAP14 ADD SWAP1 DUP2 SSTORE SWAP4 MLOAD DUP5 DUP14 ADD DUP1 SLOAD PUSH1 0x1 PUSH1 0x1 PUSH1 0xA0 SHL SUB NOT AND PUSH1 0x1 PUSH1 0x1 PUSH1 0xA0 SHL SUB SWAP1 SWAP3 AND SWAP2 SWAP1 SWAP2 OR SWAP1 SSTORE SWAP2 MLOAD PUSH1 0x2 DUP5 ADD SSTORE SWAP1 MLOAD PUSH1 0x3 DUP4 ADD SSTORE MLOAD PUSH1 0x4 SWAP1 SWAP2 ADD SSTORE SWAP2 DUP4 SWAP1 MSTORE SWAP1 SWAP4 MSTORE SWAP2 SLOAD SWAP1 SWAP5 POP SWAP2 SWAP3 SWAP1 SWAP2 EQ ISZERO PUSH2 0xB1B JUMPI PUSH1 0x2 DUP1 SLOAD SWAP1 PUSH1 0x0 PUSH2 0xB15 DUP4 PUSH2 0x14EB JUMP JUMPDEST SWAP2 SWAP1 POP SSTORE POP JUMPDEST PUSH1 0x1 DUP1 SLOAD SWAP1 PUSH1 0x0 PUSH2 0xB2B DUP4 PUSH2 0x14EB JUMP JUMPDEST SWAP2 SWAP1 POP SSTORE POP DUP2 PUSH1 0x4 PUSH1 0x0 DUP3 DUP3 SLOAD PUSH2 0xB42 SWAP2 SWAP1 PUSH2 0x1506 JUMP JUMPDEST SWAP3 POP POP DUP2 SWAP1 SSTORE POP DUP2 PUSH1 0x3 PUSH1 0x0 DUP3 DUP3 SLOAD PUSH2 0xB5B SWAP2 SWAP1 PUSH2 0x1506 JUMP JUMPDEST SWAP1 SWAP2 SSTORE POP POP PUSH1 0x0 DUP4 DUP2 MSTORE PUSH1 0x9 PUSH1 0x20 SWAP1 DUP2 MSTORE PUSH1 0x40 DUP1 DUP4 KECCAK256 DUP2 MLOAD PUSH1 0x60 DUP2 ADD DUP4 MSTORE CALLER DUP1 DUP3 MSTORE DUP2 DUP6 ADD SWAP1 DUP2 MSTORE TIMESTAMP SWAP4 DUP3 ADD SWAP4 DUP5 MSTORE DUP3 SLOAD PUSH1 0x1 DUP1 DUP3 ADD DUP6 SSTORE SWAP4 DUP8 MSTORE SWAP5 DUP7 KECCAK256 SWAP2 MLOAD PUSH1 0x3 SWAP1 SWAP6 MUL SWAP1 SWAP2 ADD DUP1 SLOAD PUSH1 0x1 PUSH1 0x1 PUSH1 0xA0 SHL SUB NOT SWAP1 DUP2 AND PUSH1 0x1 PUSH1 0x1 PUSH1 0xA0 SHL SUB SWAP7 DUP8 AND OR DUP3 SSTORE SWAP2 MLOAD SWAP3 DUP2 ADD DUP1 SLOAD SWAP1 SWAP3 AND SWAP3 SWAP1 SWAP5 AND SWAP2 SWAP1 SWAP2 OR SWAP1 SSTORE MLOAD PUSH1 0x2 SWAP1 SWAP2 ADD SSTORE PUSH1 0x5 DUP1 SLOAD SWAP2 PUSH2 0xBE8 DUP4 PUSH2 0x14EB JUMP JUMPDEST SWAP2 SWAP1 POP SSTORE POP POP POP POP JUMP JUMPDEST PUSH1 0x0 DUP2 DUP2 MSTORE PUSH1 0x9 PUSH1 0x20 MSTORE PUSH1 0x40 SWAP1 KECCAK256 SLOAD DUP1 ISZERO PUSH2 0xD34 JUMPI PUSH1 0x0 JUMPDEST DUP2 DUP2 LT ISZERO PUSH2 0xD32 JUMPI PUSH1 0x0 PUSH1 0x1 PUSH2 0xC20 DUP4 DUP6 PUSH2 0x14A7 JUMP JUMPDEST PUSH2 0xC2A SWAP2 SWAP1 PUSH2 0x14A7 JUMP JUMPDEST PUSH1 0x0 DUP6 DUP2 MSTORE PUSH1 0x9 PUSH1 0x20 MSTORE PUSH1 0x40 DUP2 KECCAK256 DUP1 SLOAD SWAP3 SWAP4 POP SWAP1 SWAP2 DUP4 SWAP1 DUP2 LT PUSH2 0xC4F JUMPI PUSH2 0xC4F PUSH2 0x147B JUMP JUMPDEST PUSH1 0x0 SWAP2 DUP3 MSTORE PUSH1 0x20 SWAP1 SWAP2 KECCAK256 PUSH1 0x1 PUSH1 0x3 SWAP1 SWAP3 MUL ADD ADD SLOAD PUSH1 0x6 SLOAD PUSH1 0x1 PUSH1 0x1 PUSH1 0xA0 SHL SUB SWAP1 SWAP2 AND SWAP2 POP DUP2 SWAP1 PUSH2 0x8FC SWAP1 PUSH2 0xC85 SWAP1 PUSH1 0xA SWAP1 PUSH2 0x151E JUMP JUMPDEST PUSH1 0x40 MLOAD DUP2 ISZERO SWAP1 SWAP3 MUL SWAP2 PUSH1 0x0 DUP2 DUP2 DUP2 DUP6 DUP9 DUP9 CALL SWAP4 POP POP POP POP ISZERO DUP1 ISZERO PUSH2 0xCAD JUMPI RETURNDATASIZE PUSH1 0x0 DUP1 RETURNDATACOPY RETURNDATASIZE PUSH1 0x0 REVERT JUMPDEST POP DUP6 ISZERO PUSH2 0xD1D JUMPI PUSH1 0x0 DUP6 DUP2 MSTORE PUSH1 0x9 PUSH1 0x20 MSTORE PUSH1 0x40 SWAP1 KECCAK256 DUP1 SLOAD DUP1 PUSH2 0xCD1 JUMPI PUSH2 0xCD1 PUSH2 0x14BE JUMP JUMPDEST PUSH1 0x0 DUP3 DUP2 MSTORE PUSH1 0x20 DUP2 KECCAK256 PUSH1 0x3 PUSH1 0x0 NOT SWAP1 SWAP4 ADD SWAP3 DUP4 MUL ADD DUP1 SLOAD PUSH1 0x1 PUSH1 0x1 PUSH1 0xA0 SHL SUB NOT SWAP1 DUP2 AND DUP3 SSTORE PUSH1 0x1 DUP3 ADD DUP1 SLOAD SWAP1 SWAP2 AND SWAP1 SSTORE PUSH1 0x2 ADD DUP2 SWAP1 SSTORE SWAP2 SSTORE PUSH1 0x5 DUP1 SLOAD SWAP2 PUSH2 0xD17 DUP4 PUSH2 0x14D4 JUMP JUMPDEST SWAP2 SWAP1 POP SSTORE POP JUMPDEST POP POP DUP1 DUP1 PUSH2 0xD2A SWAP1 PUSH2 0x14EB JUMP JUMPDEST SWAP2 POP POP PUSH2 0xC0A JUMP JUMPDEST POP JUMPDEST POP POP POP JUMP JUMPDEST PUSH1 0x0 SLOAD PUSH1 0x1 PUSH1 0x1 PUSH1 0xA0 SHL SUB AND CALLER EQ PUSH2 0xD93 JUMPI PUSH1 0x40 MLOAD PUSH3 0x461BCD PUSH1 0xE5 SHL DUP2 MSTORE PUSH1 0x20 PUSH1 0x4 DUP3 ADD DUP2 SWAP1 MSTORE PUSH1 0x24 DUP3 ADD MSTORE PUSH32 0x4F776E61626C653A2063616C6C6572206973206E6F7420746865206F776E6572 PUSH1 0x44 DUP3 ADD MSTORE PUSH1 0x64 ADD PUSH2 0x518 JUMP JUMPDEST PUSH2 0xD9D PUSH1 0x0 PUSH2 0x12A8 JUMP JUMPDEST JUMP JUMPDEST PUSH1 0x1 PUSH1 0x1 PUSH1 0xA0 SHL SUB DUP2 AND PUSH1 0x0 SWAP1 DUP2 MSTORE PUSH1 0x8 PUSH1 0x20 MSTORE PUSH1 0x40 DUP2 KECCAK256 SLOAD DUP2 SWAP1 DUP2 SWAP1 DUP2 JUMPDEST DUP2 DUP2 LT ISZERO PUSH2 0xE2A JUMPI PUSH1 0x1 PUSH1 0x1 PUSH1 0xA0 SHL SUB DUP7 AND PUSH1 0x0 SWAP1 DUP2 MSTORE PUSH1 0x8 PUSH1 0x20 MSTORE PUSH1 0x40 SWAP1 KECCAK256 DUP1 SLOAD DUP9 SWAP2 SWAP1 DUP4 SWAP1 DUP2 LT PUSH2 0xDF3 JUMPI PUSH2 0xDF3 PUSH2 0x147B JUMP JUMPDEST SWAP1 PUSH1 0x0 MSTORE PUSH1 0x20 PUSH1 0x0 KECCAK256 SWAP1 PUSH1 0x5 MUL ADD PUSH1 0x0 ADD SLOAD EQ ISZERO PUSH2 0xE18 JUMPI PUSH1 0x1 SWAP5 POP SWAP3 POP SWAP1 POP PUSH2 0xE35 JUMP JUMPDEST DUP1 PUSH2 0xE22 DUP2 PUSH2 0x14EB JUMP JUMPDEST SWAP2 POP POP PUSH2 0xDBE JUMP JUMPDEST POP PUSH1 0x0 SWAP4 POP DUP4 SWAP3 POP SWAP1 POP JUMPDEST SWAP3 POP SWAP3 POP SWAP3 JUMP JUMPDEST PUSH1 0x0 DUP1 PUSH2 0xE49 DUP4 CALLER PUSH2 0xD9F JUMP JUMPDEST POP SWAP2 POP SWAP2 POP DUP2 PUSH2 0xE90 JUMPI PUSH1 0x40 MLOAD PUSH3 0x461BCD PUSH1 0xE5 SHL DUP2 MSTORE PUSH1 0x20 PUSH1 0x4 DUP3 ADD MSTORE PUSH1 0x12 PUSH1 0x24 DUP3 ADD MSTORE PUSH18 0x4465706F736974206E6F7420666F756E6421 PUSH1 0x70 SHL PUSH1 0x44 DUP3 ADD MSTORE PUSH1 0x64 ADD PUSH2 0x518 JUMP JUMPDEST CALLER PUSH1 0x0 DUP2 DUP2 MSTORE PUSH1 0x8 PUSH1 0x20 MSTORE PUSH1 0x40 SWAP1 KECCAK256 DUP1 SLOAD DUP4 SWAP1 DUP2 LT PUSH2 0xEB1 JUMPI PUSH2 0xEB1 PUSH2 0x147B JUMP JUMPDEST PUSH1 0x0 SWAP2 DUP3 MSTORE PUSH1 0x20 SWAP1 SWAP2 KECCAK256 PUSH1 0x1 PUSH1 0x5 SWAP1 SWAP3 MUL ADD ADD SLOAD PUSH1 0x1 PUSH1 0x1 PUSH1 0xA0 SHL SUB AND EQ PUSH2 0xF0D JUMPI PUSH1 0x40 MLOAD PUSH3 0x461BCD PUSH1 0xE5 SHL DUP2 MSTORE PUSH1 0x20 PUSH1 0x4 DUP3 ADD MSTORE PUSH1 0xF PUSH1 0x24 DUP3 ADD MSTORE PUSH15 0x4E6F7420617574686F726973656421 PUSH1 0x88 SHL PUSH1 0x44 DUP3 ADD MSTORE PUSH1 0x64 ADD PUSH2 0x518 JUMP JUMPDEST CALLER PUSH1 0x0 SWAP1 DUP2 MSTORE PUSH1 0x8 PUSH1 0x20 MSTORE PUSH1 0x40 SWAP1 KECCAK256 DUP1 SLOAD DUP3 SWAP1 DUP2 LT PUSH2 0xF2E JUMPI PUSH2 0xF2E PUSH2 0x147B JUMP JUMPDEST SWAP1 PUSH1 0x0 MSTORE PUSH1 0x20 PUSH1 0x0 KECCAK256 SWAP1 PUSH1 0x5 MUL ADD PUSH1 0x4 ADD SLOAD PUSH1 0x8 PUSH1 0x0 CALLER PUSH1 0x1 PUSH1 0x1 PUSH1 0xA0 SHL SUB AND PUSH1 0x1 PUSH1 0x1 PUSH1 0xA0 SHL SUB AND DUP2 MSTORE PUSH1 0x20 ADD SWAP1 DUP2 MSTORE PUSH1 0x20 ADD PUSH1 0x0 KECCAK256 DUP3 DUP2 SLOAD DUP2 LT PUSH2 0xF76 JUMPI PUSH2 0xF76 PUSH2 0x147B JUMP JUMPDEST SWAP1 PUSH1 0x0 MSTORE PUSH1 0x20 PUSH1 0x0 KECCAK256 SWAP1 PUSH1 0x5 MUL ADD PUSH1 0x3 ADD SLOAD EQ PUSH2 0xFE1 JUMPI PUSH1 0x40 MLOAD PUSH3 0x461BCD PUSH1 0xE5 SHL DUP2 MSTORE PUSH1 0x20 PUSH1 0x4 DUP3 ADD MSTORE PUSH1 0x23 PUSH1 0x24 DUP3 ADD MSTORE PUSH32 0x4465706F73697420776974686472617720616C7265616479207375626D697474 PUSH1 0x44 DUP3 ADD MSTORE PUSH3 0x656421 PUSH1 0xE8 SHL PUSH1 0x64 DUP3 ADD MSTORE PUSH1 0x84 ADD PUSH2 0x518 JUMP JUMPDEST PUSH1 0x0 PUSH1 0x7 SLOAD TIMESTAMP PUSH2 0xFF1 SWAP2 SWAP1 PUSH2 0x1506 JUMP JUMPDEST CALLER PUSH1 0x0 SWAP1 DUP2 MSTORE PUSH1 0x8 PUSH1 0x20 MSTORE PUSH1 0x40 SWAP1 KECCAK256 DUP1 SLOAD SWAP2 SWAP3 POP DUP3 SWAP2 DUP5 SWAP1 DUP2 LT PUSH2 0x1017 JUMPI PUSH2 0x1017 PUSH2 0x147B JUMP JUMPDEST SWAP1 PUSH1 0x0 MSTORE PUSH1 0x20 PUSH1 0x0 KECCAK256 SWAP1 PUSH1 0x5 MUL ADD PUSH1 0x4 ADD DUP2 SWAP1 SSTORE POP PUSH2 0xD32 PUSH1 0x0 PUSH1 0x8 PUSH1 0x0 CALLER PUSH1 0x1 PUSH1 0x1 PUSH1 0xA0 SHL SUB AND PUSH1 0x1 PUSH1 0x1 PUSH1 0xA0 SHL SUB AND DUP2 MSTORE PUSH1 0x20 ADD SWAP1 DUP2 MSTORE PUSH1 0x20 ADD PUSH1 0x0 KECCAK256 DUP5 DUP2 SLOAD DUP2 LT PUSH2 0x1067 JUMPI PUSH2 0x1067 PUSH2 0x147B JUMP JUMPDEST SWAP1 PUSH1 0x0 MSTORE PUSH1 0x20 PUSH1 0x0 KECCAK256 SWAP1 PUSH1 0x5 MUL ADD PUSH1 0x0 ADD SLOAD PUSH2 0xBF2 JUMP JUMPDEST PUSH1 0x6 SLOAD CALLVALUE LT ISZERO PUSH2 0x10DC JUMPI PUSH1 0x40 MLOAD PUSH3 0x461BCD PUSH1 0xE5 SHL DUP2 MSTORE PUSH1 0x20 PUSH1 0x4 DUP3 ADD MSTORE PUSH1 0x24 DUP1 DUP3 ADD MSTORE PUSH32 0x302E30303039312045544820726571756972656420746F206372656174652057 PUSH1 0x44 DUP3 ADD MSTORE PUSH4 0xC2E8C6D PUSH1 0xE3 SHL PUSH1 0x64 DUP3 ADD MSTORE PUSH1 0x84 ADD PUSH2 0x518 JUMP JUMPDEST PUSH1 0x0 PUSH2 0x10E8 DUP4 DUP4 PUSH2 0xD9F JUMP JUMPDEST POP POP SWAP1 POP DUP1 PUSH2 0x1139 JUMPI PUSH1 0x40 MLOAD PUSH3 0x461BCD PUSH1 0xE5 SHL DUP2 MSTORE PUSH1 0x20 PUSH1 0x4 DUP3 ADD MSTORE PUSH1 0x1F PUSH1 0x24 DUP3 ADD MSTORE PUSH32 0x4E6F204465706F736974732065786973747320666F7220616464726573732100 PUSH1 0x44 DUP3 ADD MSTORE PUSH1 0x64 ADD PUSH2 0x518 JUMP JUMPDEST PUSH1 0x0 DUP4 DUP2 MSTORE PUSH1 0x9 PUSH1 0x20 SWAP1 DUP2 MSTORE PUSH1 0x40 DUP1 DUP4 KECCAK256 DUP2 MLOAD PUSH1 0x60 DUP2 ADD DUP4 MSTORE PUSH1 0x1 PUSH1 0x1 PUSH1 0xA0 SHL SUB DUP8 DUP2 AND DUP3 MSTORE CALLER DUP3 DUP7 ADD SWAP1 DUP2 MSTORE TIMESTAMP SWAP5 DUP4 ADD SWAP5 DUP6 MSTORE DUP4 SLOAD PUSH1 0x1 DUP1 DUP3 ADD DUP7 SSTORE SWAP5 DUP9 MSTORE SWAP6 SWAP1 SWAP7 KECCAK256 SWAP2 MLOAD PUSH1 0x3 SWAP1 SWAP6 MUL SWAP1 SWAP2 ADD DUP1 SLOAD PUSH1 0x1 PUSH1 0x1 PUSH1 0xA0 SHL SUB NOT SWAP1 DUP2 AND SWAP6 DUP4 AND SWAP6 SWAP1 SWAP6 OR DUP2 SSTORE SWAP5 MLOAD DUP6 DUP4 ADD DUP1 SLOAD SWAP1 SWAP6 AND SWAP2 AND OR SWAP1 SWAP3 SSTORE MLOAD PUSH1 0x2 SWAP1 SWAP3 ADD SWAP2 SWAP1 SWAP2 SSTORE PUSH1 0x5 SLOAD PUSH2 0x11C4 SWAP2 PUSH2 0x1506 JUMP JUMPDEST PUSH1 0x5 SSTORE PUSH1 0x3 SLOAD PUSH2 0x11D5 SWAP1 CALLVALUE SWAP1 PUSH2 0x1506 JUMP JUMPDEST PUSH1 0x3 SSTORE POP POP POP JUMP JUMPDEST PUSH1 0x0 SLOAD PUSH1 0x1 PUSH1 0x1 PUSH1 0xA0 SHL SUB AND CALLER EQ PUSH2 0x1237 JUMPI PUSH1 0x40 MLOAD PUSH3 0x461BCD PUSH1 0xE5 SHL DUP2 MSTORE PUSH1 0x20 PUSH1 0x4 DUP3 ADD DUP2 SWAP1 MSTORE PUSH1 0x24 DUP3 ADD MSTORE PUSH32 0x4F776E61626C653A2063616C6C6572206973206E6F7420746865206F776E6572 PUSH1 0x44 DUP3 ADD MSTORE PUSH1 0x64 ADD PUSH2 0x518 JUMP JUMPDEST PUSH1 0x1 PUSH1 0x1 PUSH1 0xA0 SHL SUB DUP2 AND PUSH2 0x129C JUMPI PUSH1 0x40 MLOAD PUSH3 0x461BCD PUSH1 0xE5 SHL DUP2 MSTORE PUSH1 0x20 PUSH1 0x4 DUP3 ADD MSTORE PUSH1 0x26 PUSH1 0x24 DUP3 ADD MSTORE PUSH32 0x4F776E61626C653A206E6577206F776E657220697320746865207A65726F2061 PUSH1 0x44 DUP3 ADD MSTORE PUSH6 0x646472657373 PUSH1 0xD0 SHL PUSH1 0x64 DUP3 ADD MSTORE PUSH1 0x84 ADD PUSH2 0x518 JUMP JUMPDEST PUSH2 0x12A5 DUP2 PUSH2 0x12A8 JUMP JUMPDEST POP JUMP JUMPDEST PUSH1 0x0 DUP1 SLOAD PUSH1 0x1 PUSH1 0x1 PUSH1 0xA0 SHL SUB DUP4 DUP2 AND PUSH1 0x1 PUSH1 0x1 PUSH1 0xA0 SHL SUB NOT DUP4 AND DUP2 OR DUP5 SSTORE PUSH1 0x40 MLOAD SWAP2 SWAP1 SWAP3 AND SWAP3 DUP4 SWAP2 PUSH32 0x8BE0079C531659141344CD1FD0A4F28419497F9722A3DAAFE3B4186F6B6457E0 SWAP2 SWAP1 LOG3 POP POP JUMP JUMPDEST DUP1 CALLDATALOAD PUSH1 0x1 PUSH1 0x1 PUSH1 0xA0 SHL SUB DUP2 AND DUP2 EQ PUSH2 0x130F JUMPI PUSH1 0x0 DUP1 REVERT JUMPDEST SWAP2 SWAP1 POP JUMP JUMPDEST PUSH1 0x0 PUSH1 0x20 DUP3 DUP5 SUB SLT ISZERO PUSH2 0x1326 JUMPI PUSH1 0x0 DUP1 REVERT JUMPDEST PUSH2 0x132F DUP3 PUSH2 0x12F8 JUMP JUMPDEST SWAP4 SWAP3 POP POP POP JUMP JUMPDEST PUSH1 0x20 DUP1 DUP3 MSTORE DUP3 MLOAD DUP3 DUP3 ADD DUP2 SWAP1 MSTORE PUSH1 0x0 SWAP2 SWAP1 PUSH1 0x40 SWAP1 DUP2 DUP6 ADD SWAP1 DUP7 DUP5 ADD DUP6 JUMPDEST DUP3 DUP2 LT ISZERO PUSH2 0x13A0 JUMPI DUP2 MLOAD DUP1 MLOAD DUP6 MSTORE DUP7 DUP2 ADD MLOAD PUSH1 0x1 PUSH1 0x1 PUSH1 0xA0 SHL SUB AND DUP8 DUP7 ADD MSTORE DUP6 DUP2 ADD MLOAD DUP7 DUP7 ADD MSTORE PUSH1 0x60 DUP1 DUP3 ADD MLOAD SWAP1 DUP7 ADD MSTORE PUSH1 0x80 SWAP1 DUP2 ADD MLOAD SWAP1 DUP6 ADD MSTORE PUSH1 0xA0 SWAP1 SWAP4 ADD SWAP3 SWAP1 DUP6 ADD SWAP1 PUSH1 0x1 ADD PUSH2 0x1353 JUMP JUMPDEST POP SWAP2 SWAP8 SWAP7 POP POP POP POP POP POP POP JUMP JUMPDEST PUSH1 0x0 PUSH1 0x20 DUP3 DUP5 SUB SLT ISZERO PUSH2 0x13BF JUMPI PUSH1 0x0 DUP1 REVERT JUMPDEST POP CALLDATALOAD SWAP2 SWAP1 POP JUMP JUMPDEST PUSH1 0x20 DUP1 DUP3 MSTORE DUP3 MLOAD DUP3 DUP3 ADD DUP2 SWAP1 MSTORE PUSH1 0x0 SWAP2 SWAP1 PUSH1 0x40 SWAP1 DUP2 DUP6 ADD SWAP1 DUP7 DUP5 ADD DUP6 JUMPDEST DUP3 DUP2 LT ISZERO PUSH2 0x13A0 JUMPI DUP2 MLOAD DUP1 MLOAD PUSH1 0x1 PUSH1 0x1 PUSH1 0xA0 SHL SUB SWAP1 DUP2 AND DUP7 MSTORE DUP8 DUP3 ADD MLOAD AND DUP8 DUP7 ADD MSTORE DUP6 ADD MLOAD DUP6 DUP6 ADD MSTORE PUSH1 0x60 SWAP1 SWAP4 ADD SWAP3 SWAP1 DUP6 ADD SWAP1 PUSH1 0x1 ADD PUSH2 0x13E3 JUMP JUMPDEST PUSH1 0x0 DUP1 PUSH1 0x40 DUP4 DUP6 SUB SLT ISZERO PUSH2 0x1431 JUMPI PUSH1 0x0 DUP1 REVERT JUMPDEST DUP3 CALLDATALOAD DUP1 ISZERO ISZERO DUP2 EQ PUSH2 0x1441 JUMPI PUSH1 0x0 DUP1 REVERT JUMPDEST SWAP5 PUSH1 0x20 SWAP4 SWAP1 SWAP4 ADD CALLDATALOAD SWAP4 POP POP POP JUMP JUMPDEST PUSH1 0x0 DUP1 PUSH1 0x40 DUP4 DUP6 SUB SLT ISZERO PUSH2 0x1462 JUMPI PUSH1 0x0 DUP1 REVERT JUMPDEST DUP3 CALLDATALOAD SWAP2 POP PUSH2 0x1472 PUSH1 0x20 DUP5 ADD PUSH2 0x12F8 JUMP JUMPDEST SWAP1 POP SWAP3 POP SWAP3 SWAP1 POP JUMP JUMPDEST PUSH4 0x4E487B71 PUSH1 0xE0 SHL PUSH1 0x0 MSTORE PUSH1 0x32 PUSH1 0x4 MSTORE PUSH1 0x24 PUSH1 0x0 REVERT JUMPDEST PUSH4 0x4E487B71 PUSH1 0xE0 SHL PUSH1 0x0 MSTORE PUSH1 0x11 PUSH1 0x4 MSTORE PUSH1 0x24 PUSH1 0x0 REVERT JUMPDEST PUSH1 0x0 DUP3 DUP3 LT ISZERO PUSH2 0x14B9 JUMPI PUSH2 0x14B9 PUSH2 0x1491 JUMP JUMPDEST POP SUB SWAP1 JUMP JUMPDEST PUSH4 0x4E487B71 PUSH1 0xE0 SHL PUSH1 0x0 MSTORE PUSH1 0x31 PUSH1 0x4 MSTORE PUSH1 0x24 PUSH1 0x0 REVERT JUMPDEST PUSH1 0x0 DUP2 PUSH2 0x14E3 JUMPI PUSH2 0x14E3 PUSH2 0x1491 JUMP JUMPDEST POP PUSH1 0x0 NOT ADD SWAP1 JUMP JUMPDEST PUSH1 0x0 PUSH1 0x0 NOT DUP3 EQ ISZERO PUSH2 0x14FF JUMPI PUSH2 0x14FF PUSH2 0x1491 JUMP JUMPDEST POP PUSH1 0x1 ADD SWAP1 JUMP JUMPDEST PUSH1 0x0 DUP3 NOT DUP3 GT ISZERO PUSH2 0x1519 JUMPI PUSH2 0x1519 PUSH2 0x1491 JUMP JUMPDEST POP ADD SWAP1 JUMP JUMPDEST PUSH1 0x0 DUP3 PUSH2 0x153B JUMPI PUSH4 0x4E487B71 PUSH1 0xE0 SHL PUSH1 0x0 MSTORE PUSH1 0x12 PUSH1 0x4 MSTORE PUSH1 0x24 PUSH1 0x0 REVERT JUMPDEST POP DIV SWAP1 JUMP INVALID LOG2 PUSH5 0x6970667358 0x22 SLT KECCAK256 0xDF DUP6 0xA8 PUSH30 0x5A09973DD405296A6A5CEC1F2BAEE48DBEEB4C14C6FD00583FC0ED466473 PUSH16 0x6C634300080B00330000000000000000 ","sha1":"93d1ad6d7503654096923f87afa50731295fe23d","source":"// SPDX-License-Identifier: MIT\n\npragma solidity ^0.8.0;\n\nimport \"@chainlink/contracts/src/v0.8/interfaces/AggregatorV3Interface.sol\";\nimport \"@openzeppelin/contracts/access/Ownable.sol\";\n\ncontract Arch911Contract is Ownable {\n    // depositFund() - internally calls create watcher\n    // createWatcher()\n    // submitWithdrawRequest() - moves tx details to withdraw list with time required\n    // maturityTime = now + (numberOfDays * 1 days);\n\n    // ????? ApproveWithdraw() onlyOwner\n    // withDraw() - depositor can come back again & withdraw to same address/account\n    // alertWatchers() onlyOwner - sent to all watchers. sent 2nd to deposiot when period over\n    // get911Status() called twice daily from external method/contract/ui\n\n    //function depositFund()\n    uint256 public numOfDeposits;\n    uint256 public numOfUniqueDepositors;\n    uint256 public totalVaultValue;\n    uint256 public totalDepositValue;\n    uint256 public numberOfWatch;\n    //0.00091 ETH watcher fees\n    //911000000000000 WEI\n    uint256 public watchCreationFees = 911000000000000;\n    //0.000091 Alert amount (1/10th of watchCreationFees)\n    //91100000000000 WEI\n    //uint256 public alertAmount = watchCreationFees / 10;\n\n    //uint256 maturityTimePostRedemption = 9 days;\n    uint256 maturityTimePostRedemption = 120 seconds;\n\n    struct Deposit {\n        uint256 depositId;\n        address depositorAddress;\n        uint256 amount;\n        uint256 creationTime;\n        uint256 maturityTime;\n    }\n\n    mapping(address => Deposit[]) ownerOfDeposits;\n\n    struct Watch {\n        address depositorAddress;\n        address watcherAddress;\n        uint256 watchCreationTime;\n    }\n\n    //creationTime => Watch\n    mapping(uint256 => Watch[]) depositToWatches;\n\n    AggregatorV3Interface public priceFeed;\n\n    constructor(address _priceFeed) {\n        priceFeed = AggregatorV3Interface(_priceFeed);\n    }\n\n    function getVaultDetails()\n        public\n        view\n        returns (\n            uint256,\n            uint256,\n            uint256,\n            uint256\n        )\n    {\n        return (\n            numOfDeposits,\n            numOfUniqueDepositors,\n            totalDepositValue,\n            numberOfWatch\n        );\n    }\n\n    //0.00091 ETH watcher fees\n    //911000000000000 WEI\n    //Example : amount = 0.1 eth\n    //total = 0.10091 ETH\n    // total 100911000000000000 wei\n    //FRONTEND UI automatically adds 0.00091 ETH watcher fees to deposit amount\n    function addDeposit() public payable {\n        //function will be called by depositor\n        //amount sent will be 'deposit amount' + 0.00911\n\n        uint256 _depositId = uint256(\n            keccak256(abi.encodePacked(block.timestamp, msg.sender))\n        );\n\n        uint256 _amount = msg.value;\n        address _funderAddress = msg.sender;\n\n        ownerOfDeposits[_funderAddress].push(\n            Deposit(\n                _depositId,\n                _funderAddress,\n                _amount,\n                block.timestamp,\n                block.timestamp\n            )\n        );\n        //if length is 1, it means this is a new depositor\n        if (ownerOfDeposits[_funderAddress].length == 1) {\n            // this is a new Depositor, creating deposit for the first time\n            numOfUniqueDepositors++;\n        }\n        numOfDeposits++;\n        totalDepositValue += _amount;\n        totalVaultValue += _amount;\n\n        //adds watcher for Deposit creator (watch for depositor himself)\n        depositToWatches[_depositId].push(\n            Watch(msg.sender, msg.sender, block.timestamp)\n        );\n        numberOfWatch++;\n    }\n\n    //adds watcher for anyone on any deposit by charging 0.00091 ETH (911000000000000 wei)\n    function addWatcher(uint256 _depositId, address _depositorAddress)\n        public\n        payable\n    {\n        //msg.value >= 911000000000000\n        require(\n            msg.value >= watchCreationFees,\n            \"0.00091 ETH required to create Watch\"\n        );\n\n        (bool depositExists, , ) = getDepositIndex(\n            _depositId,\n            _depositorAddress\n        );\n        require(depositExists, \"No Deposits exists for address!\");\n\n        depositToWatches[_depositId].push(\n            Watch(_depositorAddress, msg.sender, block.timestamp)\n        );\n        numberOfWatch = numberOfWatch + 1;\n        totalVaultValue = totalVaultValue + msg.value;\n    }\n\n    //finds depositIndex\n    // Result only for msg.Sender\n    // returns true if deposit exists, index position, numOfDepositsByUser\n    function getDepositIndex(uint256 _depositId, address _depositorAddress)\n        public\n        view\n        returns (\n            bool,\n            uint256,\n            uint256\n        )\n    {\n        uint256 numOfDepositsByUser = ownerOfDeposits[_depositorAddress].length;\n        for (uint256 index = 0; index < numOfDepositsByUser; index++) {\n            if (\n                ownerOfDeposits[_depositorAddress][index].depositId ==\n                _depositId\n            ) {\n                return (true, index, numOfDepositsByUser);\n            }\n        }\n        //fix this, looks incorrect\n        return (false, 0, numOfDepositsByUser);\n    }\n\n    function submitWithdrawRequest(uint256 _depositId) public {\n        // ???? moves tx details to withdraw list with time required\n\n        (bool depositFound, uint256 _depositIndex, ) = getDepositIndex(\n            _depositId,\n            msg.sender\n        );\n        require(depositFound, \"Deposit not found!\");\n        //Below require is redundant but still important to keep check\n        require(\n            ownerOfDeposits[msg.sender][_depositIndex].depositorAddress ==\n                msg.sender,\n            \"Not authorised!\"\n        );\n        require(\n            ownerOfDeposits[msg.sender][_depositIndex].creationTime ==\n                ownerOfDeposits[msg.sender][_depositIndex].maturityTime,\n            \"Deposit withdraw already submitted!\"\n        );\n\n        uint256 newMaturityTime = block.timestamp + maturityTimePostRedemption;\n        ownerOfDeposits[msg.sender][_depositIndex]\n            .maturityTime = newMaturityTime;\n\n        alertWatchers(\n            false,\n            ownerOfDeposits[msg.sender][_depositIndex].depositId\n        );\n    }\n\n    function withdraw(uint256 _depositId) public {\n        (\n            bool depositFound,\n            uint256 _depositIndex,\n            uint256 _numOfDepositsByUser\n        ) = getDepositIndex(_depositId, msg.sender);\n        require(depositFound, \"Deposit not found!\");\n        //Below require is redundant but still important to keep check\n        require(\n            ownerOfDeposits[msg.sender][_depositIndex].depositorAddress ==\n                msg.sender,\n            \"Not authorised!\"\n        );\n        require(\n            ownerOfDeposits[msg.sender][_depositIndex].creationTime !=\n                ownerOfDeposits[msg.sender][_depositIndex].maturityTime,\n            \"Deposit withdraw request not submitted!\"\n        );\n        require(\n            block.timestamp >=\n                ownerOfDeposits[msg.sender][_depositIndex].maturityTime,\n            \"Deposit withdraw maturity not achieved yet!\"\n        );\n        uint256 _amountToTransfer = ownerOfDeposits[msg.sender][_depositIndex]\n            .amount;\n        payable(msg.sender).transfer(_amountToTransfer);\n\n        Deposit memory removeDeposit;\n        removeDeposit = ownerOfDeposits[msg.sender][_depositIndex];\n        ownerOfDeposits[msg.sender][_depositIndex] = ownerOfDeposits[\n            msg.sender\n        ][_numOfDepositsByUser - 1];\n        ownerOfDeposits[msg.sender][_numOfDepositsByUser - 1] = removeDeposit;\n        ownerOfDeposits[msg.sender].pop();\n\n        // PENDING\n        // check for minimum 10 dollars deposit\n\n        numOfDeposits--;\n        totalDepositValue -= _amountToTransfer;\n        totalVaultValue -= _amountToTransfer;\n\n        alertWatchers(true, removeDeposit.depositId);\n    }\n\n    function alertWatchers(bool _isFinalAlert, uint256 _depositId) public {\n        //to all deposits for deposiId send alert.\n        //if _isFinalAlert, remove watch[] for same & udpate numOfWatchs\n        uint256 numOfWatchsForDepositId = depositToWatches[_depositId].length;\n\n        if (depositToWatches[_depositId].length > 0) {\n            for (uint256 index = 0; index < numOfWatchsForDepositId; index++) {\n                uint256 lastIndex = numOfWatchsForDepositId - index - 1;\n                address _watcherAddress = depositToWatches[_depositId][\n                    lastIndex\n                ].watcherAddress;\n\n                payable(_watcherAddress).transfer(watchCreationFees / 10);\n                if (_isFinalAlert) {\n                    //we delete watch when alert sent during Withdraw method & not submitwithdraw method\n                    depositToWatches[_depositId].pop();\n                    numberOfWatch--;\n                }\n            }\n        }\n    }\n\n    function getDepositsByOwner(address _depositorAddress)\n        public\n        view\n        returns (Deposit[] memory)\n    {\n        return ownerOfDeposits[_depositorAddress];\n    }\n\n    function getWatchesOnDeposit(uint256 _depositId)\n        public\n        view\n        returns (Watch[] memory)\n    {\n        return depositToWatches[_depositId];\n    }\n}\n","sourcePath":"contracts/Arch911Contract.sol","type":"contract","deployment":{"address":"0xE0C20f1e5015FD7DE221Bb29Dfc9aa25DA5988D0","chainid":"42","blockHeight":30581469}}